:020000040800F2
:1000000000070020590200088F1F0008C11E0008C9
:100010008D1F000817150008C5210008000000000A
:10002000000000000000000000000000931F000816
:100030001915000800000000911F0008951F000816
:1000400073020008730200087302000873020008BC
:1000500073020008730200087302000873020008AC
:10006000730200087302000873020008730200089C
:10007000730200087302000873020008730200088C
:10008000730200087302000873020008730200087C
:10009000730200087302000873020008730200086C
:1000A000730200087302000873020008730200085C
:1000B000730200087302000873020008730200084C
:1000C000730200087302000873020008730200083C
:1000D000730200087302000873020008730200082C
:1000E000730200087302000873020008730200081C
:1000F000730200087302000873020008730200080C
:1001000073020008730200087302000873020008FB
:1001100073020008730200087302000873020008EB
:1001200073020008730200087302000873020008DB
:1001300073020008730200087302000873020008CB
:1001400073020008730200087302000873020008BB
:1001500073020008730200087302000873020008AB
:10016000730200087302000873020008730200089B
:100170007302000873020008730200080000000008
:10018000730200087302000800F002F800F054F84F
:100190000AA090E8000C82448344AAF10107DA45E2
:1001A00001D100F049F8AFF2090EBAE80F0013F0E0
:1001B000010F18BFFB1A43F0010318472C28000059
:1001C0004C280000103A24BF78C878C1FAD85207EA
:1001D00024BF30C830C144BF04680C6070470000C1
:1001E0000023002400250026103A28BF78C1FBD840
:1001F000520728BF30C148BF0B607047662902F024
:10020000868303681B0A28BF41F08001642900F03F
:10021000CF80F82900F00881002070471FB502F058
:100220006CFB00F03BFC04000020002102F09CF974
:10023000E0601FBD10B510BD00F030FD1146FFF7A6
:10024000EDFF02F093F800F04EFD03B4FFF7F2FF6C
:1002500003BC00F091FD00000948804709480047B1
:10026000FEE7FEE7FEE7FEE7FEE7FEE7FEE7FEE766
:10027000FEE7FEE704480549054A064B70470000C3
:100280005920000889010008000100200007002013
:10029000000300200003002053EA020C00F06980F4
:1002A0002DE9F04B4FF00006002B1FBFB3FA83F58A
:1002B00003FA05F424FA05F65E4012BF1643B2FABB
:1002C00082F502FA05F4C5F120051EBF22FA05FCED
:1002D00044EA0C04203556EA044C4FEA144418BF93
:1002E000641C4FF000084FF00009904271EB030CC2
:1002F00039D3002919BFB1FA81F701FA07F6B0FA2C
:1003000080F700FA07F6C7F120071EBF20FA07FCA6
:1003100046EA0C062037B6FBF4FCA7EB0507103FB6
:1003200007F01F0BCBF120060CFA0BFB2CFA06F69C
:1003300044BFB3460026202FA4BF5E464FF0000BFB
:100340005BEA060C08BF4FF0010B19EB0B09ABFB86
:10035000027C48EB0608C01B06FB02CC0BFB03CC5F
:1003600071EB0C01C1E70B46024641464846BDE829
:10037000F08B13B54FF000004FF00001AFF3008099
:10038000BDE81C40704700000FB41CB5074B06AA1F
:100390007B4469460090059800F067FB00206946A1
:1003A00000F076FB1CBC5DF814FB0000FD060000AD
:1003B0002DE9F0410646002410687529314616A53E
:1003C00010D0AFF30080002802DA404213A507E006
:1003D00031688A0701D512A502E0490704D511A5A5
:1003E000012401E0AFF3008000210A2206F1240776
:1003F00009E0B0FBF2FCB0FBF2F302FB1C00303072
:1004000078541846491C0028F3D123462A46304622
:10041000BDE8F04100F0BCB8000000002D00000075
:100420002B00000020000000D21DF0B40D4622F089
:1004300007020188D2E90034090502D5104A7A443E
:1004400002E00F4A7A440E32002100F1240608E04F
:1004500003F00F071B09D75D43EA0473240977549F
:10046000491C53EA0407F3D104780023240704D578
:10047000702D02D009B102231132F0BC00F088B80F
:10048000EA2400002DE9F0410F46054600202862CD
:100490002846E968884770B3252805D0D5E90121A9
:1004A0009047286A401CF2E7E968284600268847FA
:1004B0006C2804460AD0682C08D04C2C35D06A2C05
:1004C00031D0742C31D07A2C2FD016E0E968064652
:1004D00028468847B042044608D16C2E23D04FF4FA
:1004E00080662846E9688847044606E06C2E03D0FB
:1004F0004FF4807601E01EE04026E4B1A4F1410013
:10050000192802D8203446F400663A462146284687
:100510002E60FFF773FE60B1012808D0FF1D27F0A1
:1005200007070837B4E78026DBE70026D9E73F1D39
:10053000AEE72046B2E7286ABDE8F0814FF000023E
:1005400000B5134694469646203922BFA0E80C50C9
:10055000A0E80C50B1F12001BFF4F7AF090728BFA4
:10056000A0E80C5048BF0CC05DF804EB890028BF20
:1005700040F8042B08BF704748BF20F8022B11F049
:10058000804F18BF00F8012B7047704770477047C5
:100590002DE9F0470D4699469246044600F124089D
:1005A0000168880604D5E06921F01001216000E0AF
:1005B0000120A84201DD471B00E00027A1697A194C
:1005C00002EB0900081AA0612078C00602D4204678
:1005D000AFF30080002608E0D4E901211AF80600F4
:1005E0009047206A401C761C20624E45F4DB207840
:1005F000C0060AD52046AFF3008006E0D4E9012109
:1006000030209047206A401C2062381EA7F1010765
:10061000F4DC07E0D4E9012118F805009047206ACE
:10062000401C2062281EA5F10105F3DC2046AFF333
:1006300000802078000602D50220BDE8F087012066
:10064000FBE770472DE9FF4F0C461E464FF0FF3782
:100650008BB0D2E90001DDF860800A908A46C1F3D0
:100660000A5505B93D46002108464FF00000BAF191
:10067000000F00F4400005DA00EB80004FF4400169
:1006800001EA50004FEA9059B9F1010F00DDB94677
:100690000A9850EA4A000ED044F61050A5F2FF35F1
:1006A00045432F14B8F1000F1ED07542291E1EDDE0
:1006B000C9F100021CE0B8F1010F4FF0000001D0B9
:1006C000302103E0F24305E02154401CB042FBDB43
:1006D00030460022002121540B99C1F80880C1E95D
:1006E00000200FB0BDE8F08FBD1B6D1CDEE74A4651
:1006F00000DA694206A800F05BFA06AB93E807004F
:1007000003AB83E8070050460A9900F03CFB8DE8F4
:100710000700A0F500501F3800900398002D0ADD57
:1007200042F21F014A460844002303A90390684689
:1007300000F0A5FD09E0A0F500504A461F3800234F
:1007400003A90390684600F0AFFD8DE807000004A0
:10075000000C03D04FF0FF30410800E01046B8F124
:10076000000F03D00022009215461EE0751E05D42E
:1007700000F098F9303262556D1EF9D5B34601226A
:10078000084302D000227F1C04E02078302801D1E9
:1007900000227F1E002A099784D01DE0112D07DA60
:1007A00000F080F9303262556D1C50EA0102F5D13B
:1007B000084302D00098C8B10EE00021681E05E091
:1007C000235C625C63542254401E491C8142F7DB67
:1007D000AB46A81B401E0990002004F80B000B98A4
:1007E000099AC0F80880C0E9002B7AE711264FF07B
:1007F000000857E72DE9F04F88460446D21D22F045
:10080000070191B0D1E90001CDE90A0101F0DBFC5B
:1008100002460B98C00F01D02D2007E02068810709
:1008200001D52B2002E0202101EAC000032A099013
:1008300001D0072A05DB03464146204600F078F93F
:100840000BE12078800601D5E06900E00620B8F1D0
:10085000650F814606D0B8F1660F18D0B8F1670F62
:1008600070D131E00020B9F1110F009001DB1123AC
:1008700001E009F101030AAA01A90CA8FFF7E2FEB1
:10088000DDE90C70002609F10105834647E00120EF
:100890004B4600904FF000470AAA01A90CA8FFF7A9
:1008A000D1FEDDE90DB00C995D46002610B909F1C5
:1008B00001000D18B9EB050003D4C0F1FF3609F1B2
:1008C0000105A5EB09002BE0B9F1010F01DA4FF0AA
:1008D00001090020B9F1110F0090484601DD1123F4
:1008E00000E003460AAA01A90CA8FFF7ABFEDDE968
:1008F0000C704D4600268346207800070AD4AB458D
:1009000000DA5D4601A8012D04DD411911F8011C32
:10091000302907D04F4502DA17F1040F04DA01201D
:1009200082460FE06D1EEEE7002F02DCED1B3E4419
:1009300003E0781CA84200DD7D1CB81B00F1010A11
:100940004FF000472078000703D4AA4501DB4FF0A1
:10095000FF3A0021B7F1004F0DF143088DF8431025
:1009600024D002202B23002F01DA7F422D230A21DD
:10097000021EA0F1010000DC5FB197FBF1FC97FBC8
:10098000F1F201FB1C7C17460CF1300C08F801CD8C
:10099000EEE7A8F1010003702188090501D5452182
:1009A00000E06521A0F1010800F8011C09980FA9D9
:1009B000A1EB0807FF1D00B10120411901EBEA700E
:1009C000A1693844081A401EA0612078C00602D4EC
:1009D0002046AFF30080099828B1D4E9012190475F
:1009E000206A401C20622078C00622D52046AFF342
:1009F00000801EE0002E04DBB34502DD01A8805D0F
:100A000000E03020D4E901219047206A401C206298
:100A1000761CAAF101005FEA000A0AD100F03EF854
:100A2000C0680168405CD4E901219047206A401CFD
:100A30002062281EA5F10105DCDC07E0D4E90121D4
:100A400018F8010B9047206A401C2062381EA7F15D
:100A50000107F3DC2046AFF30080032011B041E62C
:100A600001694A1C02610878704700B58FB0CDE972
:100A700001310021059105497944CDE90310114662
:100A80006846FFF7FFFC0FB000BD0000E5FFFFFF69
:100A90000A6802F8010B0A607047000000487047BE
:100AA000BC00002030B5B0F10A024FEA900E71F19F
:100AB00000034EEA817EB0EB0E0061EB91014FEA3C
:100AC000101E4EEA017E10EB0E0041EB11114FEAB1
:100AD000102E4EEA016E10EB0E0041EB11214FEA91
:100AE000104E4EEA014E10EB0E0041EB1141401842
:100AF00041F100014FEAD00040EA41704FEAD101D4
:100B000010EB80054FEA810444EA907444EB010441
:100B10006D1944EB0404521BA3414FF0000348BF7E
:100B20000A3200D530BD401C41F1000130BD00004B
:100B30002DE9F0411F46044603260168072A01F407
:100B4000006004DB08B116A505E016A503E008B1B6
:100B500015A500E015A521F010002060A069C01EB9
:100B6000A0610FB1401EA0612046AFF300804FB1DD
:100B7000D4E9012138469047206A401C2062C01CFD
:100B8000206206E0206AFAE7D4E9012115F8010B9A
:100B90009047761EF8D22046AFF30080BDE8F08182
:100BA0004E414E006E616E00494E4600696E660011
:100BB0002DE9F047814616468AB0354878440DC87D
:100BC0008DE80D0032487844801C03AC0DC884E8E1
:100BD0000D0041F69B300844372190FBF1F290FB69
:100BE000F1F5A5F1800501FB12041B3C02D564421E
:100BF000012000E00020DFF898A080460027FA449A
:100C0000AAF1BE0A0EE0E0070AD03246684607EBBA
:100C1000470101230AEB810100F046FB8DE8070044
:100C200064107F1C002CEED1194F7F44AE3F19E0B9
:100C3000E80715D007EB04100DF1180A90E80E0034
:100C40008AE80E00C068F04201D198190890324637
:100C5000012306A903A800F027FB03AB83E80700E4
:100C60006D10641C002DE3D14FF00103324669463C
:100C7000B8F1000F03A802D000F001FB01E000F082
:100C800013FBC9E90001C9F808200AB0BDE8F087E4
:100C9000101E0000004870479C0000207546FFF7BA
:100CA000F9FFAE4605006946534620F00700854629
:100CB00018B020B5FFF7DEFABDE820404FF000067F
:100CC0004FF000074FF000084FF0000B21F0070134
:100CD000AC46ACE8C009ACE8C009ACE8C009ACE877
:100CE000C0098D46704710B50446AFF3008020461A
:100CF000BDE81040FFF7A9BA4FF0013C50F8042BB3
:100D000051F8043B9A4221D1A2EB0C03934313EA1E
:100D1000CC1317D150F8042B51F8043B9A4215D14B
:100D2000A2EB0C03934313EACC130BD150F8042B22
:100D300051F8043B9A4209D1A2EB0C03934313EA06
:100D4000CC13DBD04FF00000704700BFD01A01BABF
:100D5000B1FA81F101F0180122FA01F0CB40C1F1A2
:100D60002001DBB2C0B2C01A2CFA01F3D11A9143B0
:100D700011EAC311E6D1704701491820ABBEFEE766
:100D80002600020070475FEA400C08BF91F0000F98
:100D90004FEA8C234FEAC12243EA51514FEA1C50DB
:100DA00018BF00F5F0404FEA300018BF41F0004195
:100DB0005FEA6C5C00F02980BCF1FF3F08BF40F0A7
:100DC00080407047130C06BF12044FF0100C4FF018
:100DD000000C130E04BF12020CF1080C130F04BF19
:100DE00012010CF1040C930F04BF92000CF1020CE1
:100DF000D30F04BF52000CF1010C11464FF000025A
:100E0000A0F11F00A0EB0C00704711F0004F08BFCD
:100E1000704731F000413FF4D5AF0B0C06BF090419
:100E20004FF0100C4FF0000C0B0E04BF09020CF138
:100E3000080C0B0F04BF09010CF1040C8B0F04BF4D
:100E400089000CF1020CCB0F04BF49000CF1010C1E
:100E5000CCF12003A0EB0C0022FA03F302FA0CF20F
:100E600041EA030100F10100704720F07F4C80EA65
:100E7000030023F07F47ACEB070303F57C5300F03E
:100E8000004003F1FF032DE980494FEA154B09B4F7
:100E90004FEA144325EA0B4E24EA03480FF20426D6
:100EA00006EB132749083E785FEA320203FB066728
:100EB000C7F5000707FB06F64FEA54374FEAD64658
:100EC00006F1020607FB066CCCF1005C4FEA1C47FA
:100ED0002CEA074C07FB06F40CFB06F504EB154661
:100EE0004FEA961634BF00204FF000404FEAD1374A
:100EF00006FB07FC4FEA1C4C0CFB0BF7D21B03FB59
:100F00000CF761EB07010CFB0EF7B0EB074072EB3F
:100F100017420CFB08F734BFA2EB0742B2EB0742C3
:100F200061EB17414FEA0C444FEA910706FB07FCBF
:100F30004FEA1C4C0CFB0BF7B0EBC74072EB57327F
:100F400003FB0CF734BFA2EBC742B2EBC74261EB25
:100F500057310CFB0EF7B0EBC70072EB57720CFB6E
:100F600008F734BFA2EBC702B2EBC70261EB5771BF
:100F7000039F4FEA816141EA921104EBCC044FEAEE
:100F8000D1374FEA826206FB07FC42EA90124FEA31
:100F900080604FEA1C4C0CFB0BF7D21B03FB0CF7D9
:100FA00061EB07010CFB0EF7B0EB074072EB174249
:100FB0000CFB08F734BFA2EB0742B2EB074261EB30
:100FC00017414FEA8C554FEA910704EB9C2406FB2E
:100FD00007FC4FEA1C4C0CFB0BF7B0EBC74072EB65
:100FE000573203FB0CF734BFA2EBC742B2EBC74248
:100FF00061EB57310CFB0EF7B0EBC70072EB577289
:101000000CFB08F734BFA2EBC702B2EBC70261EBDF
:10101000577115EB4C254FEA816141EA92114FEA75
:1010200082624FEAD13742EA901206FB07FC44F194
:1010300000044FEA80604FEA1C4C0CFB0BF7D21BFC
:1010400003FB0CF761EB07010CFB0EF7B0EB07405D
:1010500072EB17420CFB08F734BFA2EB0742B2EB6E
:10106000074261EB174115EB1C154FEA813141EA4C
:1010700092414FEA823242EA90424FEA80304FEA90
:101080000C7644F1000448EA03434EEA0B484FF063
:10109000000EB2EB080C71EB030724BF6246394621
:1010A0004EEB0E0E4FF0000B0018524149414BEB36
:1010B0000B0BB2EB080C71EB03077BF1000B24BFA9
:1010C000624639464EEB0E0E4FF0000B00185241AF
:1010D00049414BEB0B0BB2EB080C71EB03077BF1B7
:1010E000000B24BF624639464EEB0E0E51EA020752
:1010F00018BF46F0010616EB0E7655F1000254F1CA
:10110000000103D5BDE88901BDE80088BDE889017B
:10111000BDE80048B619524141EB0101A3F10103BA
:10112000704780807F7E7D7C7B7A79787776767554
:101130007473727171706F6E6E6D6C6C6B6A6A69CC
:101140006868676666656464636362616160605F66
:101150005F5E5E5D5D5C5C5B5B5A5A5959585857DF
:101160005756565555555454535352525251515047
:1011700050504F4F4F4E4E4D4D4D4C4C4C4B4B4B9A
:101180004A4A4A49494948484847474747464646E0
:10119000454545444444444343434342424242411B
:1011A0004141002B9C4630D477002BD01CB54FEA30
:1011B000370703B44FF010004FF01001BAF1000FE1
:1011C00006D0BCF1000FDCBF40F0080040F0080181
:1011D0004FF000000FBCBDE810400BF1010BBBF15C
:1011E000010F08BF5FEA170722BF12F1010211F1D8
:1011F00001014FF0004143F1000300F0004043EAD9
:1012000000007047F9D35708D0E746EA064613F1C5
:10121000400F4FEA16461FDD13F1200FDFBF1643C4
:101220000A46002120335B42BED0C3F1200746EAC4
:10123000064602FA07F74FEA164646EA0706C3F1E2
:10124000200722FA03F201FA07F721FA03F14FF01F
:10125000000342EA0702A7E746EA020646EA064614
:101260004FEA164646EA0106BCBF46EA0646360C79
:101270004FF000034FF000024FF0000194E72DE91A
:10128000804C9A46934670B491E8380007C831EA1A
:10129000400C48BF34EA430C03D5FFF7E6FDFFF7E7
:1012A00080FFF0BCBDE8008C2DE9804C9A46934647
:1012B00070B491E8380007C810F0804F08BF13F0F1
:1012C000804F03D100F005F8FFF76BFFF0BCBDE8DD
:1012D000008C20F07F4780EA030023F07F4C07EB6F
:1012E0000C03A3F57C5300F00040A3F1FE0392F041
:1012F000000F00F0B38095F0000F00F077802DE92B
:1013000001494FEA11404FEA144621EA004800FB28
:1013100006FC24EA064708FB06F607FB08F800FB74
:1013200007F718EB06484CEB164C4FEA124B18EB3C
:1013300007484FEA15464CEB174022EA0B4E0BFBD1
:1013400006FC25EA06470EFB06F607FB0EFE0BFB26
:1013500007F71EEB064E4CEB164C4FF000061EEB4B
:10136000074E4CEB174B18EB0B0840F1000018EB45
:101370000E0B58EB000840F100008F1A4FF00001EF
:101380003CBFC943661B14BFB5EB040C00213CBF36
:10139000C943F61B4FEA17444EEA8E0E27EA04456E
:1013A0004FEA1C4704FB07622CEA074C05FB07F7D2
:1013B0000CFB05F604FB0CFC16EB074642EB174250
:1013C00016EB0C4642EB1C421BEB060658EB0202E6
:1013D000414146EA9E0601D5BDE80189B619524150
:1013E00041EB0101A3F10103BDE801894FEA144576
:1013F0004FEA114724EA054621EA074C05FB07F4AA
:1014000006FB07F70CFB06F105FB0CFC11EB074193
:1014100044EB17444FEA124711EB0C4144EB1C44D8
:1014200022EA074C05FB07F206FB07F70CFB06F662
:1014300005FB0CFC16EB074642EB174216EB0C467D
:1014400042EB1C456A1854F1000148BF7047B619B9
:10145000524141EB0101A3F10103704795F0000FE8
:1014600037D04FEA11424FEA144721EA024624EAF4
:10147000074C02FB07F106FB07F70CFB06F402FB27
:101480000CFC14EB074441EB17414FEA154714EBF2
:101490000C4441EB1C4125EA074C02FB07F506FB17
:1014A00007F70CFB06F602FB0CFC16EB074645EBB8
:1014B000174516EB0C4645EB1C42121951F1000181
:1014C00048BF7047B619524141EB0101A3F1010336
:1014D00070474FEA14454FEA114724EA054621EACE
:1014E000074C05FB07F106FB07F70CFB06F24FF074
:1014F000000605FB0CFC12EB074241EB174112EB17
:101500000C4251EB1C4148BF7047921841EB01015E
:10151000A3F101037047FEE7704700002DE9F84F83
:10152000DFF8BCA1002201250AF1040B03264FF0CD
:101530000F090BF1040E00BF0B6805FA02F42340FB
:10154000A34270D10F7907F00307012F01D0022FBA
:1015500016D187684FEA420806FA08FC27EA0C070A
:10156000D1F80CC00CFA08FC4CEA070CC0F808C013
:101570004768A7430C79C4F3001494403C4344608B
:101580000C79E443A4070AD0C4684FEA420C06FA77
:101590000CF7BC438F6807FA0CF72743C7600C7938
:1015A00004F00304022C12D1D40800EB840CDCF804
:1015B00020405707FF0E09FA07F824EA0804D1F87B
:1015C000108008FA07F848EA0408CCF8208004687C
:1015D0004FEA420C06FA0CF7BC430F7907F00307F9
:1015E00007FA0CF7274307604C6814F4403F70D0AB
:1015F0003C4C276847F480472760246822F00307A3
:1016000004F480440094384C07EB040CDCF80848E0
:1016100097074FEA177809FA08F7BC43334FB842E7
:1016200002D1002724E054E0314FB84201D1012714
:101630001EE0304FB84201D1022719E02E4FB842C8
:1016400001D1032714E02D4FB84201D104270FE048
:101650002B4FB84201D105270AE02A4FB84201D1E9
:10166000062705E0284FB84201D1072700E00827E8
:1016700007FA08F72743CCF80878DAF8004057460D
:10168000D1F804C09C435FEACC3C00D51C433C60CD
:10169000DBF800405F46D1F804C09C435FEA8C3C15
:1016A00000D51C433C60DEF800407746D1F804C00A
:1016B0009C435FEACC2C00D51C433C60084F0C37A0
:1016C0003C68D1F804C09C435FEA8C2C00D51C43D5
:1016D0003C60521C102AFFF42FAFBDE8F88F0000C9
:1016E000003C01404438024000300140000002400C
:1016F0000004024000080240000C024000100240BA
:101700000014024000180240001C02400AB181612E
:1017100070470904FBE7000001488068704700003B
:1017200004000020024881680278114481607047FB
:10173000040000200B4810B5016841F400710160FD
:10174000016841F480610160016841F480710160C9
:10175000032000F061F80F2000F006F800F024F8F4
:10176000002010BD003C024070B50D4D04464FF402
:101770007A712878B1FBF0F00A490968B1FBF0F002
:1017800000F0FCFA48B9102C07D200222146501E66
:1017900000F022F800206C6070BD012070BD0000D8
:1017A00004000020100000200A4808B5016841F438
:1017B00080410160006800F4804000900548001FEF
:1017C000016841F080510160006800F08050009095
:1017D00008BD000044380240F0B40E4B1B680C46B4
:1017E000C3F30223C3F10705042D00D90425191DF5
:1017F000072901D2002300E0DB1E012606FA05F1CD
:10180000491E214099409E40761E16403143F0BC4F
:1018100000F0F1BC0CED00E0064900F0070208689A
:101820004FF6FF03184040EA0220034A10430860C5
:10183000704700000CED00E00000FA052DE9F047CC
:101840000E46050065D0DFF81481D8F80000F7B225
:1018500000F00700B04207D288F80070D8F8000006
:1018600000F00700B04254D128683D4C810712D5E2
:10187000400703D5206840F4E05020602878000736
:1018800003D5206840F4604020602068A96820F0FB
:10189000F000084320602878C0072DD030496868E0
:1018A0000839012812D0022813D0032811D0096862
:1018B000890700292DDA216821F003010143216005
:1018C000FFF72AFF814641F2883A0EE00968890352
:1018D000EFE709688901ECE7FFF71EFFA0EB0901BC
:1018E000514502D90320BDE8F0872068696800F0FF
:1018F0000C00B0EB810FEFD1D8F80010404601F09A
:101900000701B14207D90770006800F00700B04234
:1019100001D00120E7E72878400705D52068E9686D
:1019200020F4E050084320602878000706D520689E
:10193000296920F4604040EAC100206000F038F8D6
:101940002168084AC1F30311515CC8400649086088
:1019500006480068FFF708FF0020C4E7003C02408B
:101960000838024014290008100000200800002058
:101970000448054900680968044AC1F38221515CA2
:10198000C840704710000020083802402429000891
:101990000448054900680968044AC1F34231515CB2
:1019A000C840704710000020083802402429000871
:1019B000154810B5006810F00C02144813D04110FF
:1019C000042A0FD0082A0ED10F4C241F2268236846
:1019D00002F03F025B0207D52068C0F38810A0FB2D
:1019E000010106E0084610BD2168C1F38811A1FB82
:1019F00000010023FEF750FC2168C1F30141491C9E
:101A00004900B0FBF1F010BD083802400024F4009A
:101A10002DE9F84F04006ED02078DFF84C93C00712
:101A2000A9F104054AD009F104000168C1F381015C
:101A3000012908D00068C0F3810002280AD1D9F832
:101A40000000400206D52868800337D5606800286A
:101A5000E1D033E06068B0F5803F10D0B0F5A02F42
:101A6000286810D020F480302860286820F4802076
:101A700028606068A8B1FFF74FFE06460DE02868B1
:101A800040F48030F4E740F480202860F7E700BF9E
:101A9000FFF742FE801B642873D828688003F7D5BF
:101AA0000CE0FFF739FE064605E000BFFFF734FE05
:101AB000801B6428F0D828688003F7D42078DFF8EA
:101AC000AC8280074FF0000A3ED5A748001D016890
:101AD00011F00C0F08D00068C0F3810002280BD170
:101AE000D9F80000400207D42868800716D5E068BE
:101AF000012800D112E033E1E068B8B10120C8F854
:101B00000000FFF709FE064605E000BFFFF704FEF0
:101B1000801B0228C0D828688007F7D5286821696B
:101B200020F0F80040EAC10028600DE0C8F800A0ED
:101B3000FFF7F2FD064604E0FFF7EEFD801B0228EA
:101B40001FD828688007F7D42078000722D5864F51
:101B500087486169703771B101210160FFF7DCFDD1
:101B6000064604E0FFF7D8FD801B022809D8386834
:101B70008007F7D50EE0C0F800A0FFF7CDFD0646C0
:101B800005E082E0FFF7C8FD801B02287DD8386899
:101B90008007F7D42078400768D5DFF8CCB100275C
:101BA0000BF13C0BDBF80000C0000BD4DBF800109D
:101BB00041F08051CBF80010DBF80000012700F065
:101BC000805000906B4E3068C00510D4306840F4EF
:101BD00080703060FFF7A0FD009005E0FFF79CFDEE
:101BE0000099401A022850D83068C005F6D55E4EDC
:101BF000A0686C3601280FD00528306810D020F07E
:101C000001003060306820F004003060A068B8B196
:101C1000FFF782FD00900FE0306840F00100F4E72C
:101C200040F004003060F7E7FFF776FD0099411AB5
:101C300041F28830814266D830688007F4D50EE0E2
:101C4000FFF76AFD009007E0FFF766FD0099411A73
:101C500041F28830814256D830688007F4D42FB1E1
:101C6000DBF8001021F08051CBF80010A069C8B358
:101C70003D49091D0968C1F3810102294AD00228A2
:101C8000504607D0C8F8600000E03CE0FFF744FD94
:101C900004463BE04746C8F86000FFF73DFD0646B6
:101CA00005E000BFFFF738FD801B02282BD828680D
:101CB0008001F7D4D4E907010843A16A2E4A4908F4
:101CC00002EB0141626A41EA8211084394F82C1048
:101CD00040EA0161C9F8001001203866FFF71CFDD9
:101CE000044606E03EE000BFFFF716FD001B022899
:101CF00009D828688001F7D534E000BFFFF70CFD54
:101D0000001B022802D90320BDE8F88F2868800153
:101D1000F4D427E00128F7D0D9F80000E26900F4F4
:101D2000800191421CD1226A00F03F01914217D1FB
:101D300047F6C071626A0140B1EB821F10D1A26AFE
:101D40004FF0FF3300F4403103EB5202B1EB024F8E
:101D500006D194F82C1000F07060B0EB016F01D048
:101D60000120D1E70020CFE70438024000004742BD
:101D7000800E4742007000400000FFFF10B5401E7B
:101D8000B0F1807F01D3012010BD4FF0E0246061ED
:101D90000F21601700F02FFA0020A06107202061BA
:101DA000002010BD70B5040004D094F83D0000255B
:101DB00010B106E0012070BD84F83C50204600F0D0
:101DC00023F8242084F83D002068C16821F40051E4
:101DD000C160204600F048F92068016921F4904173
:101DE00001612068416921F02A0141612068C168D0
:101DF00041F40051C1602564202084F83D0084F83E
:101E00003E00002070BD0000F0B587B004461421EC
:101E10006846FEF793FB2648244F26680021244A93
:101E20001038022303240725BE4218D1166846F451
:101E300000361660126802F400320592026842F021
:101E400001020260006802AE00F00100059086E821
:101E500032000C20CDE900036946164822E0164FF7
:101E6000BE4221D1166846F480261660126802F43C
:101E700080220592026842F002020260006802AE0F
:101E800000F00200059086E832004FF44060CDE992
:101E900000030A4C69462046FFF740FB12200190E0
:101EA00069462046FFF73AFB07B0F0BD004400400A
:101EB0004038024000000240004800400004024058
:101EC000FEE7000070B50C4D03460020803D0A4C33
:101ED0002A050CE02668401CF60708D02E68F60795
:101EE00005D000E000BF1668002EFBD01170195C11
:101EF0000029EFD170BD0000800E00E0F0B587B082
:101F000014216846FEF71AFB1D480024016841F0C1
:101F100080010160016801F080010591016841F0D4
:101F200001010160016801F001010591016841F0C2
:101F300002010160016801F002010591016841F0B0
:101F40000801016000680F4F00F008004FF4704670
:101F50000590002231463846FFF7D8FB0125CDE930
:101F60000054694608480294FFF7D8FA0096CDE974
:101F70000154694638460394FFF7D0FA07B0F0BD24
:101F800030380240000C024000000240FEE7FEE74D
:101F90007047704710B5FFF7C5FB074800684FF45E
:101FA0007A71B0FBF1F201FB1200002802D1034963
:101FB0000120087010BD00000C000020000000206F
:101FC00030B593B030216846FEF7B8FA14210CA85A
:101FD000FEF7B4FA1E480025016841F08051016007
:101FE000006800F0805011901A48016841F4804167
:101FF00001600068022400F48040119001200090EC
:10200000000401908001CDE90640082008904FF4BB
:10201000A870CDE9090404200B906846FFF7F8FC8E
:1020200008B172B6FEE70CA90F2081E831004FF429
:10203000A0500F904FF48050109005210CA8FFF78E
:10204000FDFB002801D072B6FEE713B030BD0000E2
:1020500040380240007000400248016841F47001BD
:102060000160704788ED00E070B5044600680169C2
:10207000E26821F44051114301612169A068E269DD
:1020800008436169114308432168CA6849F20C6337
:102090009A430243CA6020684169A26921F44071F1
:1020A0001143416131492068884202D03049884259
:1020B00002D1FFF76DFC01E0FFF75AFCE269002353
:1020C000192164253226B2F5004F626828D0A0FBA2
:1020D0000101930F9200FEF7DFF80146B0FBF5F027
:1020E0006FF01802504301EB800006EB0010B0FBCC
:1020F000F5F000F0F002B1FBF5F002EB0012B1FBDD
:10210000F5F06FF01803584301EB800006EB001068
:10211000B0FBF5F000F00F0021681044886070BD3E
:10212000A0FB010192185B41FEF7B6F80146B0FB37
:10213000F5F00201B1FBF5F06FF01803584301EB25
:10214000800006EBC000B0FBF5F000F0F80002EBF9
:102150004002B1FBF5F0584301EB800006EBC000F4
:10216000B0FBF5F000F00700D6E7000000100140DA
:102170000014014005480068800603D50348001D8F
:10218000006870474FF480707047000000480040BE
:102190000B4810B5094901604FF4E131416000215D
:1021A00081600C22C160C0E904128161C161FFF746
:1021B000F9FD002801D072B6FEE710BD00480040CE
:1021C00058000020FEE703B401984100009850EA4F
:1021D000C12018BF04204A0D18BF40F0010040F292
:1021E000FF72B2EB515F08BF40F00200012808BF48
:1021F000052002B070470907090E002804DB00F132
:10220000E02080F80014704700F00F0000F1E0209B
:1022100080F8141D704730B50446002001460022A6
:10222000635C80EA030505F00105002D01D080F014
:1022300018004FEA500001D040F0800002F1010286
:10224000D2B24FEA5303082AEBD3491CC9B208297A
:10225000E5D330BD70B586B000F03AF9F02821D052
:1022600015A10822D1E90001CDE90001694603A8C2
:1022700000F014F900252C462E460122104902A830
:1022800000F00CF99DF80800FF280ED064084FEA12
:10229000350500BF06F10106402EEEDB284621463B
:1022A00006B070BD00200146FAE760084FEA350528
:1022B00040F00044EEE70000FFFF0000FFFF0000D9
:1022C0001329000830B52DED028B87B09FED1F8AD2
:1022D00000F0FEF8F02820D01DA10822D1E900016D
:1022E000CDE90001694604A800F0D8F81AA1082237
:1022F000D1E90001CDE9020102A904A800F0CEF85D
:10230000002425460122164906A800F0C7F89DF8CA
:1023100018006408FF2806D007E0B0EE480A07B0AE
:10232000BDEC028B30BD44F400446D1C102DE9DB84
:10233000204600F060F99FED0B1B53EC112B00F0D1
:102340006DF900F027F900EE100AE8E70000C8C2B6
:102350000000FFFF0000FFFF00FFFFFFFFFF00FF87
:1023600013290008000000000000B03F92B0FFF702
:10237000E1F9FFF725FEFFF7C1FD2A4828490024AF
:1023800001604FF4E131C0E901140C21C460C0E9DF
:1023900004418461C461FFF705FD08B172B6FEE730
:1023A000FFF7F6FE204D28780028FCD01F48016872
:1023B00081F480410160FFF74DFFCDE9020102A8E1
:1023C000FFF729FF08B11AA026E0DDE902230090FB
:1023D0001CA104A8FDF7D8FF04A8FFF773FDFFF7C1
:1023E00071FF10EE100A1D49884201D11CA013E0B4
:1023F00010EE100A00F010FA41EC100B1CA153EC87
:10240000102B04A8FDF7C0FF04A8FFF75BFD00F048
:1024100083F8643002D11BA0FFF754FD2C70C2E793
:10242000004400401400002000000020140C024072
:102430000A4E6F20696D70756C73652049440A0DF2
:10244000000000004964202D203078256C6C782035
:1024500053756D202D202564200000000000C8C2A7
:102460000A4E6F20696D70756C736520540A0D00FB
:1024700054656D7065726174757265202D202566D6
:102480000A0D00000A4E6F20696D70756C7365202F
:102490005374617274540A0D0000000070B50B4C47
:1024A00000230546261D0EE020680006FCD5C85C0A
:1024B000306020684006FCD520688006FCD5FFF718
:1024C00059FEE8545B1C9342EEDB70BD00480040AF
:1024D0000F4808B50D4901604FF4165141600021C5
:1024E00081600C22C160C0E904128161C161FFF703
:1024F00059FC08B172B6FEE7012206496846FFF7AB
:10250000CDFFFFF745FE9DF8000008BD00480040E4
:10251000580000201229000800B587B0FFF7D8FF47
:10252000F02816D00CA10822D1E90001CDE9000164
:10253000694604A8FFF7B2FF09A10822D1E900010A
:10254000CDE9020102A904A8FFF7A8FF002007B007
:1025500000BD6FF06300FAE70000FFFF0000FFFF1F
:102560000000FF000000FF0010B500290AD0087825
:10257000002807D005487844FEF7BEFB002801D0AC
:10258000002010BD0248784410BD000092040000F5
:102590008A04000021F00042A2F16052B2F5801FCF
:1025A00001F0004328BFD2F17F6C0BD95FEA001C19
:1025B00043EAC20242EB507018BF704728BF20F0B8
:1025C00001007047B2F5801FBCBF184670474FEA44
:1025D000410C1CF5001F02D2084600F093B970B5FB
:1025E00000F0C6F800000089FFF7F6BF4FF000408A
:1025F000A0F580007047B0FA80F310FA03F10AD01A
:10260000C3F11D0303F580634FEA41504FEA0352C3
:1026100002EBD12170474FF000007047DFF848C14E
:1026200070B51CEA111E1EBF1CEA13159EEA0C0FA2
:1026300095EA0C0F00F06F8081EA030423EA4C1343
:102640004EEAD47E21EA4C1141F4801143F4801308
:10265000AE44A1FB024CA0FB0365AEF17F7E3619B0
:1026600055EB0C05A1FB034C4CF10003A0FB021C35
:1026700016EB0C06654153F10003094218BF46F002
:10268000010613F4007F0BD14FEA03314FEA053006
:10269000340341EA155140EA16506FF003020AE094
:1026A0004FEAC3214FEAC520F40241EA555140EAFE
:1026B00056506FF0020202EB2E4201EB025585EA02
:1026C000CE710AD05FEA440C18BF24F0004450F1E8
:1026D000000041F1000120EAD47040F2FE7C624526
:1026E00000D270BDA84214BF4FF080444FF0404468
:1026F000002E08BF0024BEF1806FA8BFA1F1C04129
:10270000BDE8704080F282804FF0000001F1C041CE
:1027100001F0004170479EEA0C0F0CEA131518BF38
:1027200095EA0C0F06D04FF0000081EA030E0EF080
:10273000004170BD00F01CF88900013E00F007B8B0
:1027400000F009B84FEA430C5FEA5C5C08D081EA0C
:10275000030100F05BB84FEA410C5FEA5C5CF6D124
:102760004FF00000014970470000FF070000F87FAC
:102770000EF1020E2EF0030E5EF8046B364205D405
:10278000012A43EB030515F5001F12D8012841EB80
:10279000010C1CF5001F0CD80ED14FEAD17C15F5A9
:1027A000001F0CEB4C0C0CF1020C08BF4CEBD37C63
:1027B00004E04FF0080C01E04FEAD37C0CEB4C0531
:1027C00026FA05F606F00706B6F1040C06D20EEB63
:1027D000860CBDE870404CF0010C6047DFE80CF05F
:1027E000090B02024FF000414FF00000A1F500215B
:1027F00070BD19461046012851EB010418BFD4F5ED
:10280000001484BF002001F0004170BD0808A0F54D
:1028100000114FEA3101704743004FEAD30C4FEAF1
:102820003C0C43401FBF40070CF1605113F0FE4FBA
:1028300070471CF0006F03D100200CF0004170477E
:102840000CF0004343EA507010B540EACC0000F0B1
:102850000EF800BF000000924FEA0001FFF7D6BF5C
:102860004FF000414FF00000A1F5002170470EF13C
:10287000020E2EF0030E5EF8044B244204D44FEAFD
:102880004102B2F17F4F11D84FEA4003B3F17F4FBD
:102890000CD80ED14FEAD07CB2F17F4F0CEB4C0C30
:1028A0000CF1020C08BF4CEBD17C04E04FF0080C9B
:1028B00001E04FEAD17C0CEB4C0324FA03F404F062
:1028C0000704B4F1040C06D20EEB840CBDE81040F2
:1028D0004CF0010C6047DFE80CF0070802024FF0F3
:1028E0000040A0F5800010BD0846420018BFD2F19C
:1028F000807288BF00F0004010BD4FF04070E1EEE4
:10290000100A7047FF2141EAD050C0057047FDF71B
:1029100071BFF0FF0000000000000000010203048E
:1029200006070809000000000102030430313233B9
:1029300034353637383941424344454640305800F3
:102940003031323334353637383961626364656625
:102950004030780002400000000000A000000000AD
:1029600005400000000000C8000000000C4000000E
:102970000000409C00000000194000000020BCBE88
:102980000000000034400000BFC91B8E000000049E
:10299000B5400000504BCFD06607E2CF01000000E9
:1029A0006C4100003E8251AADFEEA7340100000016
:1029B000D9420000DCB5A0E23A301F97FFFFFFFFCD
:1029C000B4450000FD25A0C8E9A3C14FFFFFFFFFEC
:1029D000FF3F00000000008000000000FF3F0000FB
:1029E0000000008000000000242A000800000020F1
:1029F00014000000C4010008382A00081400002058
:102A0000EC060000E00100081C000000430000008C
:102A1000F8FFFFFF0C0000000E0000000F00000098
:102A20002E00000000000000010000001000000067
:082A3000000000000024F40086
:040000050800018965
:00000001FF
